:020000040800F2
:100000001004002005010008FB0B0008850900080A
:10001000F90B000871010008530C000800000000F3
:10002000000000000000000000000000FF0B0008BE
:100030007301000800000000FD0B0008010C00081F
:100040001F0100081F0100081F0100081F01000810
:100050001F0100081F0100081F0100081F01000800
:100060001F0100081F0100081F0100081F010008F0
:100070001F0100081F0100081F0100081F010008E0
:100080001F0100081F0100081F0100081F010008D0
:100090001F0100081F0100081F0100081F010008C0
:1000A0001F0100081F0100081F0100081F010008B0
:1000B0001F0100081F0100081F0100081F010008A0
:1000C0001F0100081F0100081F0100081F01000890
:1000D0001F0100081F0100081F0100081F01000880
:1000E0001F0100081F0100081F010008DFF810D0E1
:1000F00000F02CF800480047930C0008AFF3008094
:10010000100400200648804706480047FEE7FEE747
:10011000FEE7FEE7FEE7FEE7FEE7FEE7FEE7FEE7B7
:10012000510C0008ED000008D2B201E000F8012BEC
:10013000491EFBD270470022F6E710B513460A4667
:1001400004461946FFF7F0FF204610BD064C074D48
:1001500006E0E06840F0010394E807009847103497
:10016000AC42F6D3FFF7C6FFBC0C0008DC0C00085D
:10017000FEE7704770B5044600F004F90546601CC0
:1001800002D004480078044400F0FCF8401BA04270
:10019000FAD370BD000000202DE9F84FDFF8B891C8
:1001A000002409F1040A0AF1040B23460F270BF17E
:1001B000040EC9E00125A5402A40AA427DD1674E20
:1001C000D1F804C0ACEB0608B44532D014DCBCF165
:1001D000030F3AD009DCBCF1000F2AD0BCF1010FAB
:1001E0001CD0BCF1020F31D11DE0BCF1110F17D0B2
:1001F000BCF1120F2AD119E0B8F5881F19D006DC1E
:10020000B8F5803F15D0B8F5801F1FD111E0B8F5C3
:10021000001F0ED0B8F5041F18D10AE0CB6815E016
:10022000CB681B1D12E0CB6808330FE0CB680C33A2
:100230000CE08B682BB1012B4FF0080303D0456114
:1002400004E0042302E0056100E00023FF2A01D856
:10025000064601E000F104064FEA840501D9A5F144
:100260002005D6F8008007FA05FC28EA0C0803FAF6
:1002700005F548EA0508C6F800804D68ED0062D52E
:10028000374DAE6946F00106AE61AD6924F0030654
:1002900005F001050095334D06EB050CDCF8085020
:1002A000A607360F07FA06F825EA0805DFF8B88032
:1002B000404503D14FF0000817E044E0DFF8AC8080
:1002C000404502D14FF001080FE0DFF8A48040451F
:1002D00002D14FF0020808E0DFF89880404502D1D3
:1002E0004FF0030801E04FF0040808FA06F848EA66
:1002F0000508CCF808804D68D9F80060ED034D463C
:1003000001D5164300E096432E604D68DAF8006090
:10031000AD03554601D5164300E096432E604D6867
:10032000DBF80060ED025D4601D5164300E0964320
:100330002E604D68DEF80060AD02754601D51643AB
:1003400000E096432E60641C0D682A46E5407FF469
:1003500031AFBDE8F88F000000040140000011102B
:10036000001002400000014000080140000C014064
:1003700000100140001401400AB1016170470904F6
:10038000FBE7000001488068704700000000002083
:1003900002488168027811448160704700000020A3
:1003A000074810B5016841F010010160032000F01A
:1003B00067F8002000F006F800F024F8002010BDD7
:1003C0000020024070B50D4D04464FF47A71287834
:1003D000B1FBF0F00A490968B1FBF0F000F0BEFA99
:1003E00048B9102C07D200222146501E00F028F8F0
:1003F00000206C6070BD012070BD00000000002076
:100400000C0000200C4808B5816941F001018161B0
:10041000816901F001010091C16941F08051C16120
:10042000C06900F0805000900448416821F0E0610C
:1004300041F00071416008BD001002400000014021
:10044000F0B40E4B1B680C46C3F30223C3F107053F
:10045000042D00D90425191D072901D2002300E02D
:10046000DB1E012606FA05F1491E214099409E40F7
:10047000761E16403143F0BC00F0ECBB0CED00E002
:10048000064900F0070208684FF6FF03184040EAEB
:100490000220034A10430860704700000CED00E0A2
:1004A0000000FA052DE9F0470F46050061D0434EE4
:1004B000306800F00700B84209D2306820F0070029
:1004C00038433060306800F00700B84251D12868E6
:1004D0003B4C810712D5400703D5606840F4E060CB
:1004E00060602878000703D5606840F46050606061
:1004F0006068A96820F0F000084360602878C007B1
:1005000028D06868012810D02168022810D08907F7
:1005100000292EDA616821F0030101436160FFF7D1
:1005200031FF804641F288390DE021688903EFE709
:100530008901EDE7FFF726FFA0EB0801494502D945
:100540000320BDE8F0876068696800F00C00B0EB3C
:10055000810FEFD1306800F00700B8420BD9306846
:1005600020F0070038433060306800F00700B842E0
:1005700001D00120E5E72878400705D56068E968E3
:1005800020F4E060084360602878000706D56068C2
:10059000296920F4605040EAC100606000F018F85A
:1005A0006168084AC1F30311515CC84006490860FC
:1005B00006480068FFF706FF0020C2E7002002405F
:1005C00000100240AA0C00080C00002004000020CB
:1005D00012A185B00FC98DE80F0014A0144A00685D
:1005E00004905168134801F00C03042B10D0082B21
:1005F0000ED1C1F38343C9031DF803000AD5516826
:1006000004AAC1F34041515C0A4A5043B0FBF1F0E7
:1006100005B0704708494843FAE7000002030405A3
:10062000060708090A0B0C0D0E0F1010010200003E
:100630000010024000127A0000093D002DE9F84F39
:10064000040070D02078C04DC00749D06868C0F35E
:100650008100012807D06868C0F38100022809D111
:100660006868C00306D52868800339D5606800280B
:10067000E7D035E06068B0F5803F0BD010B1B0F541
:10068000A02F11D0286820F480302860286820F43A
:10069000802002E0286840F480302860606890B1D3
:1006A000FFF770FE06460AE0286840F480202860C4
:1006B000F0E700BFFFF766FE801B642873D8286848
:1006C0008003F7D50CE0FFF75DFE064605E000BFAE
:1006D000FFF758FE801B6428F0D828688003F7D401
:1006E00020789A4E80074FF001094FF0000839D565
:1006F000686810F00C0F07D06868C0F3810002280A
:1007000009D16868C00306D42868800714D5206919
:10071000012808D110E02069B0B1C6F80090FFF7B9
:1007200031FE074605E00AE1FFF72CFEC01B022858
:10073000C4D828688007F7D52868616920F0F800D8
:1007400040EAC10028600DE0C6F80080FFF71AFEFD
:10075000074604E0FFF716FEC01B022823D82868CE
:100760008007F7D4207800072CD57948A169D9B142
:10077000C0F80090FFF706FE074604E0FFF702FE10
:10078000C01B02280FD8686A8007F7D571484FF45C
:10079000FA510068B0FBF1F0009000BF0098411ED4
:1007A0000091FAD20EE080E0C0F80080FFF7EAFD89
:1007B000074604E0FFF7E6FDC01B022875D8686A0B
:1007C0008007F7D42078400760D5E8690027C0008B
:1007D00008D4E86940F08050E861E869012700F03A
:1007E000805000905C480168C90513D401688346B5
:1007F00041F480710160FFF7C5FD824606E000BF4D
:10080000FFF7C0FDA0EB0A0064284ED8DBF800001B
:10081000C005F5D5E06801280AD008B1052813D035
:10082000286A20F001002862286A20F0040002E013
:10083000286A40F001002862E06841F2883B98B1E4
:10084000FFF7A0FD82460BE0286A40F00400286212
:10085000EEE700BFFFF796FDA0EB0A0159455AD815
:10086000286A8007F6D50CE0FFF78CFD824605E08C
:10087000FFF788FDA0EB0A0159454CD8286A80078C
:10088000F6D41FB1E86920F08050E861E06988B3D0
:100890006968C1F38101022944D00228C6F860804A
:1008A00004D0FFF76FFD044638E034E0FFF76AFD3F
:1008B000074604E0FFF766FDC01B02282BD8286816
:1008C0008001F7D4206AB0F5803F05D16868A1683F
:1008D00020F4003008436860D4E9080108436968DF
:1008E00021F4741108436860C6F86090FFF74AFD70
:1008F000044606E025E000BFFFF744FD001B022888
:1009000009D828688001F7D51BE000BFFFF73AFD42
:10091000001B022802D90320BDE8F88F2868800157
:10092000F4D40EE00128F7D06868226A00F4803120
:10093000914204D1616A00F47010884201D0012014
:10094000EAE70020E8E70000001002400000424211
:10095000800442420C0000200070004010B5401E90
:10096000B0F1807F01D3012010BD4FF0E024606121
:100970000F21601700F06EF90020A06107202061B0
:10098000002010BDFEE710B5302000F07DF80520F6
:10099000FFF7F0FB302000F077F80120FFF7EAFBCB
:1009A000302000F071F8382000F06EF8012000F0DF
:1009B0006BF8BDE810400C2000F066B870B5304D03
:1009C00004460122D1022846FFF7D6FC2D4EE0074F
:1009D0004FF4807101D0012200E000223046FFF781
:1009E000CBFCA00701D5012200E000228021304687
:1009F000FFF7C2FC600701D5012200E00022402180
:100A00003046FFF7B9FC200701D5012200E00022A3
:100A100020213046FFF7B0FCE00601D5012200E0BE
:100A2000002210213046FFF7A7FCA00601D50122C5
:100A300000E0002208213046FFF79EFC600601D549
:100A4000012200E0002204213046FFF795FCE00976
:100A500001D0012200E0002202213046FFF78CFC89
:100A6000002202212846FFF787FC012202212846A6
:100A7000FFF782FCBDE870400120FFF77BBB000060
:100A8000000C01400008014070B5324D04460022C0
:100A90004FF400612846FFF76FFC2F4EE0074FF43C
:100AA000807101D0012200E000223046FFF764FC93
:100AB000A00701D5012200E0002280213046FFF787
:100AC0005BFC600701D5012200E000224021304696
:100AD000FFF752FC200701D5012200E0002220216F
:100AE0003046FFF749FCE00601D5012200E0002274
:100AF00010213046FFF740FCA00601D5012200E09E
:100B0000002208213046FFF737FC600601D501229C
:100B100000E0002204213046FFF72EFCE00901D05E
:100B2000012200E0002202213046FFF725FC0122CD
:100B300002212846FFF720FC002202212846FFF769
:100B40001BFC022C01D8022000E00120BDE870400F
:100B5000FFF710BB000C0140000801402DE9F043F5
:100B600085B0002421480094019402940394816983
:100B700041F020018161816901F0200104918169C6
:100B800041F004018161816901F0040104918169EE
:100B900041F0080181618069DFF8548000F00800AD
:100BA0004FF4FF750490002229464046FFF7E4FB0E
:100BB000DFF8409040F60247002239464846FFF7EA
:100BC000DBFB0095022601250396CDE90154694619
:100BD0004046FFF7E1FA00970396CDE901546946D4
:100BE0004846FFF7D9FA05B0BDE8F083001002408F
:100BF00000080140000C0140FEE7FEE77047704727
:100C0000FFF7C6BB30B58FB028216846FFF793FACF
:100C100014210AA8FFF78FFA01252804CDE9005016
:100C2000002407946846FFF709FD08B172B6FEE795
:100C30000F200A90CDE90B540D9400210AA80E94C0
:100C4000FFF730FC002801D072B6FEE70FB030BDD0
:100C50007047FEE70907090E002804DB00F1E020D9
:100C600080F80014704700F00F0000F1E02080F8D9
:100C7000141D704702E008C8121F08C1002AFAD1EB
:100C800070477047002001E001C1121F002AFBD10C
:100C90007047FFF785FBFFF7B5FFFFF75FFFFFF733
:100CA00072FE7420FFF78AFEFEE7000000000000DD
:100CB000000001020304060708090000DC0C00081C
:100CC0000000002010000000740C0008EC0C00086C
:100CD0001000002000040000840C00080100000047
:0C0CE00010000000000000000024F400E0
:04000005080000ED02
:00000001FF
