:020000040800F2
:10000000680600206D0100087501000877010008EE
:10001000790100087B0100087D0100080000000054
:100020000000000000000000000000007F01000848
:10003000810100080000000083010008850100081C
:100040008701000887010008870100088701000870
:100050008701000887010008870100088701000860
:100060008701000887010008870100088701000850
:100070008701000887010008870100088701000840
:100080008701000887010008870100088701000830
:100090008701000887010008870100088701000820
:1000A0008701000887010008870100088701000810
:1000B0008701000887010008870100088701000800
:1000C00087010008870100088701000887010008F0
:1000D00087010008870100088701000887010008E0
:1000E00087010008870100088701000800F002F876
:1000F00000F02CF80AA090E8000C82448344AAF196
:100100000107DA4501D100F021F8AFF2090EBAE893
:100110000F0013F0010F18BFFB1A43F0010318473B
:100120007004000080040000002300240025002645
:10013000103A28BF78C1FBD8520728BF30C148BF4A
:100140000B6070471FB51FBD10B510BD00F031F832
:100150001146FFF7F7FF00F0FBF900F04FF803B48A
:10016000FFF7F2FF03BC00F057F800000948804792
:1001700009480047FEE7FEE7FEE7FEE7FEE7FEE789
:10018000FEE7FEE7FEE7FEE704480549054A064BA1
:1001900070470000F9040008ED0000086800002026
:1001A000680600206802002068020020704770473F
:1001B0007047754600F02CF8AE4605006946534678
:1001C00020F00700854618B020B5FFF7DDFFBDE839
:1001D00020404FF000064FF000074FF000084FF0AE
:1001E000000BAC46ACE8C009ACE8C009ACE8C009FB
:1001F000ACE8C00921F007018D46704710B50446F0
:10020000AFF300802046BDE81040FFF7A8BF000014
:10021000004870470000002001491820ABBEFEE7EF
:10022000260002007047000081B078B10021002252
:1002300003E000BF0132824208D00091009BB3F579
:10024000037FF7D8009B01330093F7E701B07047B5
:10025000A0F18040A0F584304FEAB020062884BF8A
:100260000020704705A151F8200041F21801C4F2A6
:1002700002010968084018BF01207047040000000F
:1002800008000000100000002000000040000000F6
:100290008000000000010000F0B581B00C460F297D
:1002A00021D81D4617460646FFF7D2FF18B930463B
:1002B000012100F03DF8E5B16FF01F0000EB840074
:1002C000082C38BFA0004FF00F0128BF0436326859
:1002D000814022EA0101316045EA8701326801FA72
:1002E00000F0104330600020102C38BF012001B016
:1002F000F0BD032F08D0022FDED10120F168A0400D
:1003000021EA0000F060D7E70120F168A04008432F
:100310000227F060D0E70000C00741F210014FF45F
:100320000050C4F2010108BF4FF000500860704750
:10033000A0F18040A0F584304FEAB02081B10628BA
:1003400055D8DFE800F004555E677079820041F20D
:100350001800C4F20200016841F004010160704716
:10036000062888BF7047DFE800F0040D161F28310B
:100370003A0041F21800C4F20200016821F00401C1
:100380000160704741F21800C4F20200016821F0D8
:1003900008010160704741F21800C4F202000168D0
:1003A00021F010010160704741F21800C4F2020010
:1003B000016821F020010160704741F21800C4F289
:1003C0000200016821F040010160704741F218000D
:1003D000C4F20200016821F080010160704741F21F
:1003E0001800C4F20200016821F4807101607047B6
:1003F00041F21800C4F20200016841F008010160F6
:10040000704741F21800C4F20200016841F0100187
:100410000160704741F21800C4F20200016841F027
:1004200020010160704741F21800C4F20200016827
:1004300041F040010160704741F21800C4F202002F
:10044000016841F080010160704741F21800C4F278
:100450000200016841F480710160704780B500F0CE
:1004600001F880BD82B041F204000021C4F2020014
:100470000191009150F8041C41F4803140F8041CB3
:1004800050F8041C01F400310091019901310191EF
:10049000009919B90199B1F5A06FF1D150F8041C78
:1004A000890354BF0021012100910099012920D125
:1004B00042F20001C4F202010A6842F010020A602E
:1004C0000A6822F003020A600A680A600168016093
:1004D0000168016001680160016821F003010160A9
:1004E000016841F001010160016801F00C0104297B
:1004F000FAD102B07047000080B541F20000C4F2AA
:1005000002000168002241F0010101604168CFF65C
:10051000FF021140416001684FF6FF72CFF6F662AC
:1005200011400160016821F480210160416821F4DB
:10053000FE0141604FF41F018160FFF78FFF4EF60F
:100540000850CEF200004FF00061016080BD000055
:1005500041F20000C4F201000D2100220223FFF746
:100560009BFE40F26004C2F2000400BF0020FFF7CF
:10057000D3FE4FF4FA70FFF757FE0120FFF7CCFED1
:100580004FF4FA70FFF750FE208801302080EDE72D
:10059000A0050008000000206806000028010008EF
:04000005080000ED02
:00000001FF
